:100000000C9471000C9499000C9499000C94990034
:100010000C9499000C9499000C9499000C94B006DF
:100020000C9499000C9499000C9499000C948D06F2
:100030000C9499000C9499000C9499000C949900DC
:100040000C947C030C9499000C9482020C945C0236
:100050000C9499000C9499000C9499000C949900BC
:100060000C9499000C949900D20BDC0FE50B4D0C0D
:10007000640C870CD00C5F0D950D4E0F9C0F6A0F12
:10008000830F9C0FA10F0000000023002600290011
:1000900000000000240027002A00000000002500C6
:1000A00028002B00040404040404040402020202D5
:1000B000020203030303030301020408102040802B
:1000C00001020408102001020408102000000008AA
:1000D000000201000003040700000000000000000F
:1000E000C51211241FBECFEFD8E0DEBFCDBF14E094
:1000F000A0E0B1E0E4E3F8E202C005900D92A03385
:10010000B107D9F725E0A0E3B4E001C01D92A937FB
:10011000B207E1F710E0C1E7D0E004C02197FE018B
:100120000E94F913C037D107C9F70E945E080C94EA
:1001300018140C940000CF92DF92EF92FF920F936D
:100140001F93CF93DF936C017A018B01C0E0D0E065
:10015000CE15DF0589F0D8016D918D01D601ED91A5
:10016000FC910190F081E02DC6010995892B11F4D5
:100170007E0102C02196ECCFC701DF91CF911F9184
:100180000F91FF90EF90DF90CF900895FC01538D79
:10019000448D252F30E0842F90E0821B930B541761
:1001A00010F0CF96089501970895FC01918D828DEE
:1001B000981761F0828DDF01A80FB11D5D968C91BB
:1001C000928D9F5F9F73928F90E008958FEF9FEFC6
:1001D0000895FC01918D828D981731F0828DE80F82
:1001E000F11D858D90E008958FEF9FEF0895FC013C
:1001F000918D228D892F90E0805C9F4F821B910909
:100200008F739927089584EC94E00E94F70021E011
:10021000892B09F420E0822F0895FC01848DDF01F1
:10022000A80FB11DA35ABF4F2C91848D90E0019669
:100230008F739927848FA689B7892C93A089B18958
:100240008C9180648C93938D848D981306C0028862
:10025000F389E02D80818F7D80830895EF92FF9256
:100260000F931F93CF93DF93EC0181E0888F9B8DD9
:100270008C8D981305C0E889F989808185FD24C09B
:10028000F62E0B8D10E00F5F1F4F0F731127E02E1E
:100290008C8DE8120CC00FB607FCFACFE889F989FB
:1002A000808185FFF5CFCE010E940D01F1CF8B8DAE
:1002B000FE01E80FF11DE35AFF4FF0820B8FEA8930
:1002C000FB898081806207C0EE89FF896083E889AD
:1002D000F98980818064808381E090E0DF91CF9113
:1002E0001F910F91FF90EF900895CF93DF93EC0152
:1002F000888D8823C9F0EA89FB89808185FD05C046
:10030000A889B9898C9186FD0FC00FB607FCF5CF7F
:10031000808185FFF2CFA889B9898C9185FFEDCFC7
:10032000CE010E940D01E7CFDF91CF91089580E0CB
:1003300090E0892B29F00E94030181110C940000A8
:100340000895833081F028F4813099F08230A1F053
:1003500008958730A9F08830B9F08430D1F48091C5
:1003600080008F7D03C0809180008F778093800014
:10037000089584B58F7702C084B58F7D84BD0895BC
:100380008091B0008F7703C08091B0008F7D809303
:10039000B00008953FB7F8948091C0049091C104D3
:1003A000A091C204B091C30426B5A89B05C02F3FFD
:1003B00019F00196A11DB11D3FBFBA2FA92F982F8B
:1003C0008827820F911DA11DB11DBC01CD0142E006
:1003D000660F771F881F991F4A95D1F708950895D2
:1003E00080E090E008950E941314DC01ED91FC91EF
:1003F0000190F081E02D09946115710579F0FB0100
:1004000001900020E9F73197AF01461B570BDC0143
:10041000ED91FC910280F381E02D099480E090E061
:1004200008954F925F926F927F92EF92FF920F9397
:100430001F93CF93DF93CDB7DEB7A1970FB6F89494
:10044000DEBF0FBECDBF7C01FA01CB0119A2223065
:1004500008F42AE08E010F5D1F4F422E512C612CB3
:10046000712CBF01A30192010E94B413F901CA01CA
:10047000015011096A3014F4605D01C0695CD80153
:100480006C93232B242B252B61F7B801C7010E9405
:10049000FC01A1960FB6F894DEBF0FBECDBFDF9171
:1004A000CF911F910F91FF90EF907F906F905F9091
:1004B0004F9008950C94FC011F920F920FB60F926B
:1004C00011242F933F934F935F936F937F938F9359
:1004D0009F93AF93BF93EF93FF9384EC94E00E94BC
:1004E0000D01FF91EF91BF91AF919F918F917F91FE
:1004F0006F915F914F913F912F910F900FBE0F9091
:100500001F9018951F920F920FB60F9211242F93E0
:100510008F939F93EF93FF93E091D404F091D504D0
:100520008081E091DA04F091DB0482FD12C09081B9
:100530008091DD048F5F8F732091DE04821751F06C
:10054000E091DD04F0E0EC53FB4F958F8093DD04E8
:1005500001C08081FF91EF919F918F912F910F901A
:100560000FBE0F901F9018951F93CF93DF93282FE6
:1005700030E0F901E453FF4F8491F901E854FF4F53
:10058000D491F901EC55FF4FC491CC23C9F0162F3B
:1005900081110E94A101EC2FF0E0EE0FFF1FE65643
:1005A000FF4FA591B4918FB7F894111105C09C919C
:1005B000ED2FE095E92302C0EC91ED2BEC938FBF7A
:1005C000DF91CF911F910895CF93DF93EC0160E00D
:1005D0008E810E94B40261E08E810E94B40260E0CC
:1005E0008E810E94B4028BE891E00197F1F7DF91D0
:1005F000CF910895CF93DF9390E0FC01E854FF4F33
:100600002491FC01EC55FF4F8491882361F190E027
:10061000880F991FFC01E057FF4FC591D491FC0151
:10062000E656FF4FA591B491611109C09FB7F894A8
:100630008881209582238883EC912E230BC0623021
:1006400061F49FB7F8943881822F80958323888343
:10065000EC912E2B2C939FBF06C08FB7F894E881A6
:100660002E2B28838FBFDF91CF9108958F929F9279
:10067000AF92BF92CF92DF92EF92FF926B017C011B
:100680000E94CA014B015C01C114D104E104F104D0
:10069000F1F00E94CA01DC01CB0188199909AA096D
:1006A000BB09883E9340A105B10570F321E0C21A51
:1006B000D108E108F10888EE880E83E0981EA11C9D
:1006C000B11CC114D104E104F10419F7DDCFFF908E
:1006D000EF90DF90CF90BF90AF909F908F90089554
:1006E0002FB7F8946091BC047091BD048091BE0452
:1006F0009091BF042FBF08951F920F920FB60F92D3
:1007000011242F933F938F939F93AF93BF93809127
:10071000BC049091BD04A091BE04B091BF0430917F
:10072000BB0423E0230F2D3720F40196A11DB11D3A
:1007300005C026E8230F0296A11DB11D2093BB041E
:100740008093BC049093BD04A093BE04B093BF04F7
:100750008091C0049091C104A091C204B091C304DF
:100760000196A11DB11D8093C0049093C104A09374
:10077000C204B093C304BF91AF919F918F913F91F9
:100780002F910F900FBE0F901F901895CF92DF9270
:10079000EF92FF920F931F93CF93DF937C016C0135
:1007A00087E0C80ED11CC0E0D0E0062F10E0B801F1
:1007B0000C2E02C0759567950A94E2F76170F601F8
:1007C00081916F010E94B4022196C430D10579F75E
:1007D000C701DF91CF911F910F91FF90EF90DF90B4
:1007E000CF900C94E402CF92DF92EF92FF920F939E
:1007F0001F93CF93DF93EC01F62E642F8C810E9420
:10080000B4028D818F3F19F060E00E94B4028F85A1
:100810000F2D10E084FF25C06E0187E0C80ED11CAB
:10082000E12CF12CB8010E2C02C0759567950A9445
:10083000E2F76170F60181916F010E94B402FFEF4F
:10084000EF1AFF0A88E0E816F10461F7CE01DF91A4
:10085000CF911F910F91FF90EF90DF90CF900C946C
:10086000E402B80184E0759567958A95E1F7CE01B9
:100870000E94C6036F2DCE01DF91CF911F910F9182
:10088000FF90EF90DF90CF900C94C60341E00E9460
:10089000F30381E090E0089540E00C94F30361E0FD
:1008A0000E944C048BE39FE10197F1F70895EF92CA
:1008B000FF920F931F93CF93DF9361E08CE00E9430
:1008C000FA0260E08CE00E94B40207EF11E0C0E0A1
:1008D000D0E0BE0183E0660F771F8A95E1F7606480
:1008E00081E695E00E944C04780188E0E80EF11C56
:1008F000F80161918F0181E695E00E9446040E1592
:100900001F05B1F72196C730D10519F762E081E6DE
:1009100095E00E9496070AE313E0C0E0D0E0F801FA
:1009200061918F0181E695E00E94F50161E270E03E
:1009300080E090E00E9436032196C131D10541F05C
:10094000CA30D10561F761E080E00E943408E7CF4A
:1009500061E082E00E94FA0261E083E00E94FA0214
:1009600061E084E00E94FA0261E085E00E94FA0200
:1009700062E086E00E94FA0262E087E00E94FA02EA
:1009800062E088E00E94FA0261E082E00E94B40224
:1009900061E083E00E94B40261E084E00E94B4025E
:1009A00061E085E00E94B402F894109280001092F9
:1009B0008100109285001092840082E49FE0909361
:1009C00089008093880080918100886080938100F5
:1009D0008091810085608093810080916F008260AA
:1009E00080936F001092B0001092B1001092B2008C
:1009F0008AEF8093B3008091B00082608093B00052
:100A00008091B10084608093B10080917000826019
:100A100080937000789480E090E00E946C13909135
:100A20000101882371F09D7F9093010190E3980F5D
:100A3000909355016FEF680F80E090E00E9474136F
:100A400003C092609093010168EE73E080E090E053
:100A50000E94360310926A0481E08093690481E663
:100A600095E00E944F04E091D404F091D50482E017
:100A70008083E091D004F091D1041082E091D204FF
:100A8000F091D30480E180831092DC04E091D804DB
:100A9000F091D90486E08083E091D604F091D704E8
:100AA000808180618083E091D604F091D7048081B9
:100AB00088608083E091D604F091D70480818068BB
:100AC0008083E091D604F091D70480818F7D80836C
:100AD000DF91CF911F910F91FF90EF9008950F93A9
:100AE0001F93CF93DF931F92CDB7DEB7282F30E04F
:100AF000F901E453FF4F8491F901E854FF4F149139
:100B0000F901EC55FF4F0491002389F0882321F06F
:100B100069830E94A1016981E02FF0E0EE0FFF1FC1
:100B2000EA57FF4FA591B491EC91E12371F470E085
:100B3000FB01EE5AFB4F8081811105C0DB01A559F5
:100B4000BB4F81E08C9384E180830F90DF91CF9144
:100B50001F910F9108951F93CF93DF9360E080E082
:100B60000E943408C0E3D4E01C2F105F699181E635
:100B700095E00E9446041C13F9CF61E080E00E94DA
:100B80003408C0E4D4E01C2F105F699181E695E041
:100B90000E9446041C13F9CF10925004DF91CF91AC
:100BA0001F910895CF93DF9310925E041092640416
:100BB0001092630460E08DE00E9434084091660466
:100BC00050E04F5F5F4F052E000C660B770B2AE05D
:100BD00081E695E00E94110261E080E00E94340805
:100BE000E0916704F0E0EE0FFF1FEC50FD4FE18154
:100BF000F0E0E050FF4F818190E00090660402C079
:100C0000959587950A94E2F780FF02C06EE301C0D4
:100C100068E581E695E00E94F50160E281E695E0F5
:100C20000E94F50120916604E0916704F0E0EE0F68
:100C3000FF1FEC50FD4F818190E0820F911D820FCC
:100C4000911DFC01E050FF4FC281C093610483817C
:100C500080936204D82FDC0FD09360048F3058F05B
:100C600081E080935E04DEE0DC0F8DEF9FEF9093D8
:100C7000640480936304CD1758F4EC2FF0E0E55F33
:100C8000FE4F608181E695E00E94F501CF5FF3CFD2
:100C900080915104882369F11092510460E080E052
:100CA0000E94340880915F04811123C0E0916704A1
:100CB000F0E0EE0FFF1FE85EFC4FC0812C2F30E00C
:100CC000E0916704F0E0EE0FFF1FE85EFC4F40810B
:100CD000818190E0840F911D2817390754F4F901A0
:100CE000E55FFE4F608181E695E00E94F501CF5FF0
:100CF000E5CFDF91CF91089590ED980F9A3058F09D
:100D00009FE9980F963038F09FEB980F81E096306E
:100D100018F080E0089581E008951F920F920FB6B9
:100D20000F9211248F9380915F04882339F0809172
:100D30005104811103C081E08093680480915E04B6
:100D4000882319F081E080936504809150048F5FBF
:100D5000809350048F910F900FBE0F901F901895A5
:100D60001F920F920FB60F9211248F939F93EF93C0
:100D7000FF93E2E5F4E09CE09E0F8081882311F070
:100D80008150808331969E13F8CFFF91EF919F9110
:100D90008F910F900FBE0F901F90189560E080E02C
:100DA0000E94340860E274E081E695E00E945A02F5
:100DB00080E090E00E941814EF92FF920F931F932F
:100DC000CF93DF93C82FD0E090E1699F8001112479
:100DD000F801EC0FFD1FE05DFB4F9081933089F12E
:100DE000E62EF82E94303CF4913049F1923009F01F
:100DF00096C08BE027C0953059F11CF0903241F13C
:100E00008EC0E0E3F4E085E090E19E0F2081263083
:100E100049F031969E13FACFE0E4F4E085E090E1EA
:100E20009E0F02C08083F5CF2081263031F03196AD
:100E30009E13FACF0E94AB050BC08083F8CF0E94AF
:100E4000CE068CE080936A0481E08093690467C0D9
:100E500080916604682F62956F708F700E943408CD
:100E600020916604922F9F70E0916704F0E0EE0FEE
:100E7000FF1FEC50FD4F818122952F7030E0280F2D
:100E8000311D280F311DF90124E0EE0FFF1F2A95B7
:100E9000E1F7E90FF11DE75CFD4F80818630A9F491
:100EA00065E081E695E00E944604E09166048E2F9D
:100EB0008F70E295EF7090E1E99FF0011124E80F47
:100EC000F11DE05DFB4F85E014C060E281E695E036
:100ED0000E944604E09166048E2F8F70E295EF70B9
:100EE00090E1E99FF0011124E80FF11DE05DFB4F57
:100EF00080E280836E2D8F2D0E94340861E081E6B0
:100F000095E00E944604C00FD11FC05DDB4F81E019
:100F1000888380E1E89EF00C1124F0926604DF9152
:100F2000CF911F910F91FF90EF900895EF92FF9254
:100F30000F931F93CF93DF93EC01623018F08F85EE
:100F400088608F876B8B1C8A80E48D8B80E18E8B11
:100F500080E58F8B61E08C810E94FA028D818F3F4A
:100F600019F061E00E94FA0261E08E810E94FA02AB
:100F70007E0187E0E80EF11C00E010E08F8584FD23
:100F800003C084E090E002C088E090E008171907F1
:100F90004CF461E0F70181917F010E94FA020F5F3A
:100FA0001F4FECCF8BE39DE00197F1F760E08C8160
:100FB0000E94B40260E08E810E94B4028D818F3F56
:100FC00019F060E00E94B4026F8564FD1DC063E00B
:100FD000CE010E94C6030BE416E4C8010197F1F7A5
:100FE00063E0CE010E94C603C8010197F1F763E0F8
:100FF000CE010E94C60383E592E00197F1F762E01B
:10100000CE010E94C60316C06062CE010E944C044D
:101010008BE496E40197F1F76F856062CE010E9440
:101020004C0483E592E00197F1F76F856062CE0191
:101030000E944C046F856062CE010E944C0484E0E3
:10104000888B6CE0CE010E944C04CE010E944F04BC
:1010500082E0898B66E0CE01DF91CF911F910F91E5
:10106000FF90EF900C944C04643008F063E0909192
:101070007405691710F06FEF690FE62FF0E0EF5974
:10108000FA4F9489682F690F606881E695E00C94A7
:101090004C046CE274E084EC94E00C94FC01CF937B
:1010A000DF93BC0184EC94E00E94FC01EC010E94FF
:1010B00049088C0F9D1FDF91CF910895CF93DF9347
:1010C000CDB7DEB76F970FB6F894DEBF0FBECDBFBA
:1010D000789484B5826084BD84B5816084BD85B513
:1010E000826085BD85B5816085BD80916E0081601F
:1010F00080936E00109281008091810082608093C5
:1011000081008091810081608093810080918000C6
:101110008160809380008091B10084608093B100F1
:101120008091B00081608093B00080917A008460EB
:1011300080937A0080917A00826080937A00809117
:101140007A00816080937A0080917A008068809331
:101150007A001092C1000E9457049E012F5F3F4FFA
:101160003B8B2A8B3195219531093D8F2C8F6FE771
:1011700084EC94E00E942E0184EC94E00E94F7003D
:1011800011E0181619060CF010E01093BA041123A0
:1011900031F084EC94E00E94D5008093B90460E0C3
:1011A00082E00E94B40263E086E00E946F0562E084
:1011B00087E00E946F0561E088E00E946F0561E0B2
:1011C00082E00E94B40260E083E00E94B40266E024
:1011D00086E00E946F0565E087E00E946F0564E08D
:1011E00088E00E946F0561E083E00E94B40260E045
:1011F00084E00E94B40269E086E00E946F0568E026
:1012000087E00E946F0567E088E00E946F0561E05B
:1012100084E00E94B40260E085E00E94B4026BE0CA
:1012200086E00E946F0560E087E00E946F056AE03B
:1012300088E00E946F0561E085E00E94B402809121
:10124000B804811149C0112309F446C0E091B904E2
:101250008FEC8E0F833020F4F0E0EF5BFB4F09C082
:101260008CEC8E0F833010F0E03331F4F0E0E55C6D
:10127000FB4F81E0808330C089EC8E0F833020F4F7
:10128000F0E0EB5CFB4FF5CFE33261F0EF3731F08C
:10129000ED3099F481E0809376041EC081E0809364
:1012A00075041AC082E080936A0481E08093690427
:1012B0008AE693E00E944F080FC06FE384EC94E04D
:1012C0000E94F5014091B90450E060E070E02AE02E
:1012D00084EC94E00E94110280916904882309F44F
:1012E00076C167E084EC94E00E942E01809167044F
:1012F0008093B10480916A048093670483E793E04C
:101300000E944F0881E695E00E944F0460917105AC
:101310006D7F60937105686081E695E00E944C04E2
:10132000609171056E7F60937105686081E695E05C
:101330000E944C0410925F041092B7041092B604FD
:1013400010925E0410926404109263041092B80428
:1013500080916704823021F491E09093B80402C038
:101360008830D1F390E0880F991FFC01EC50FD4FBD
:10137000E081E33079F5E0916704F0E0EE0FFF1FC4
:10138000EC50FD4F8081823009F465C0833009F450
:101390009AC0813009F0E1C0E181F0E0E050FF4FF8
:1013A000808180938D0460E08DE00E94340863E8C2
:1013B00073E081E695E00E945A0240918D0450E06E
:1013C00060E070E02AE081E695E00E9411020E9450
:1013D000D205C3C0F0E0EF50FD4F208110926604AB
:1013E000ECE9F4E030E13E0F11923E13FDCFFC0139
:1013F000E85EFC4F01813081201720F441E04093EA
:101400005F04022F10E0030F111DFC01E85EFC4F8A
:10141000D080ED2CF12CE016F1060CF0ACCFE09171
:101420006704F0E0EE0FFF1FE85EFC4F8081A7012C
:10143000481B51094031510521F461E080E00E94D0
:101440003408F701E55FFE4F608181E695E00E9478
:10145000F501D394DECF1092660461E080E00E9433
:10146000340810E0E0916704F0E0EE0FFF1FEC504D
:10147000FD4F8181181760F46FE581E695E00E94C9
:10148000F501E12FF0E0E456FB4F10821F5FEACF39
:1014900061E080E00E94340860917105862F8260CF
:1014A000809371056A6081E695E00E944C0460912A
:1014B0007105862F816080937105696081E695E0F2
:1014C0000E944C044AC0818160916604A0E3B4E0AC
:1014D00090E0AC0125E0440F551F2A95E1F720E08C
:1014E00030E0F901E40FF51FE75CFD4F70817D935B
:1014F000713009F4622F2F5F3F4F2031310589F79A
:10150000AC0105E0440F551F0A95E1F720E030E0FB
:10151000F901E40FF51FE75CFD4F7089F901E05D0B
:10152000FB4F708B7130B1F02F5F3F4F2031310591
:1015300079F760936604FC01EA5CFD4F20812093FB
:101540008C04FC01ED5CFD4F808180938E040E9431
:10155000AB0503C060E1620FE7CF80916704882389
:10156000D1F08E3021F582E38093770485E3809378
:10157000780491E39093790493E390937A048093B1
:101580007B0486E380937C0487E380937D0488E377
:1015900080937E040CC085E38093770488E3809376
:1015A000780486E38093790489E380937A04109227
:1015B00069040E9470036093B2047093B304809333
:1015C000B4049093B50461E08CE00E94B402809171
:1015D0006804882309F47EC0E0916704F0E0EE0F10
:1015E000FF1FE85EFC4F00818181E82EE00E90E055
:1015F00006962091B6043091B7048217930734F40D
:101600008AEF9FEF9093B7048093B604C090B6041E
:10161000D090B704D7FE0C0D60E080E00E94340843
:101620005AEFC5165FEFD50691F0D7FE10C0E091D6
:101630006704F0E0EE0FFF1FEC50FD4F8081823019
:10164000F1F561E0809166040E94340838C010E032
:101650005801F12C670185E0C80ED11C8091670408
:1016600090E0880F991FFC01EC50FD4FE081F0E005
:10167000EF50FD4F2081F801E20FF11DAE16BF06BD
:10168000B4F6AE14BF0424F4F501E55FFE4F0EC0BE
:10169000CA14DB0414F060E20AC0FC01E85EFC4FEF
:1016A0008181F501E81BF109EB5FFE4F608181E666
:1016B00095E00E94F5019FEFA91AB90ACFCF80915A
:1016C000B6049091B70401969093B7048093B60442
:1016D0001092680480916504882309F456C08091B3
:1016E000620490E0069620916304309164048217AE
:1016F000930734F48AEF9FEF90936404809363041C
:101700000091630410916404E090610417FFE00EFF
:1017100061E082E00E9434080A3FFFEF1F0771F08A
:1017200017FF0CC08091630490916404019690931C
:101730006404809363041092650427C0F12C870130
:10174000035F1F4F0E151F056CF38091600490E03E
:10175000E816F90624F4F701E55FFE4F0DC0059683
:101760008E159F0514F060E208C080916204F701B5
:10177000E81BF109EB5FFE4F608181E695E00E9476
:10178000F5012FEFE21AF20ADDCFE09167048E2F08
:1017900090E08F30910508F00FC4FC01EC5CFF4F26
:1017A0000C94F91380917604882309F405C4A7E703
:1017B000B4E0ECE9F4E084E08E0F21919D912913CF
:1017C00074C68E13FACF84E0AAC68091BA04882327
:1017D000D9F08091B904853689F08237A9F4109246
:1017E00067041092660410925F0410925E0486E80B
:1017F00093E00E944F080E94570406C088E080933F
:101800006A0481E08093690461E080E00E9434080A
:1018100002E514E0C12CD12C7601F80181918F01F1
:101820008823A9F08C2DFAE0CF16D104E104F1044D
:1018300040F42AE0B701A60181E695E00E9411027A
:101840000BC08A3011F464E603C065E601C06EE2A5
:1018500081E695E00E94F5012FEFC21AD20AE20A52
:10186000F20A3CE0C316D104E104F104B1F66DE1E3
:1018700074E081E695E00E945A024091520450E0E3
:1018800060E070E02AE081E695E00E94110260E2EB
:1018900081E695E00E94F5018FC30E9470030091DC
:1018A000B2041091B3042091B4043091B504DC016A
:1018B000CB01801B910BA20BB30B803D9740A10580
:1018C000B10508F479C31CC30E947003611571054A
:1018D0008105910511F00E9463130E94700300912D
:1018E000B2041091B3042091B4043091B504DC012A
:1018F000CB01801B910BA20BB30B803D9740A10540
:10190000B10508F459C381E080936A040BC6809145
:101910007504882349F080916604811105C081E037
:1019200080936A048093690480917604882309F483
:1019300043C3B09066040CE914E0F80140E050E0C5
:10194000BA018E2F801B8B15C0F4C1900C2C000C9B
:10195000DD0880E3C81AD1080D2C000CEE08FF0842
:10196000AAE0B0E09A01AB010E94A113AB01BC0157
:101970004C0D5D1D6E1D7F1DE4CF4093AD04509353
:10198000AE046093AF047093B0042AE084EC94E05A
:101990000E9411028CE893E00E944F0886E0BFC5C8
:1019A00060E08CE00E94B402C090AD04D090AE0420
:1019B000E090AF04F090B0040FEF1FEFC701B60145
:1019C00024E130E040E050E00E94B413262FB7013C
:1019D000A6014F5F5F4F6F4F7F4FDB01CA0130E0C1
:1019E000321788F4880F991FAA1FBB1F0197A109FE
:1019F000B109B695A79597958795840F951FA61F52
:101A0000B71F3F5FEDCF0150110919F06C017D0147
:101A1000D5CF8093AD049093AE04A093AF04B09360
:101A2000B004C0929804D0929904E0929A04F09283
:101A30009B046CE973E084EC94E00E945A024091AC
:101A4000AD045091AE046091AF047091B0042AE0EF
:101A500084EC94E00E9411020E94490866EA73E057
:101A600084EC94E00E945A024091AD045091AE047F
:101A70006091AF047091B004EFE8F4E02CE130E045
:101A800018E01E0FDB01CA01022E04C0B695A7950F
:101A9000979587950A94D2F78F709927AA27BB2725
:101AA000DC01AF51BD4F8C918193245031091E133D
:101AB000E9CF8FE894E00E944F0887E030C580911D
:101AC00075048823B1F00E9470030091B204109154
:101AD000B3042091B4043091B504DC01CB01801B28
:101AE000910BA20BB30B813D9740A105B10508F006
:101AF000DEC480917604882309F45EC20E947003DC
:101B00000091B2041091B3042091B4043091B50453
:101B1000DC01CB01801B910BA20BB30B8536910529
:101B2000A105B10508F01FC247C28091BA048823FD
:101B300009F442C28091B904823741F0873709F431
:101B400099C0813709F038C282E0E9C40E9449088F
:101B50000E944908198AEC8CFD8C00E010E06E01AF
:101B600021E1C20ED11C6EE2962E0034110509F45B
:101B70007AC0C8018F719927892B89F40115110545
:101B800071F084EB93E00E944F0884EC94E00E9493
:101B9000F700892BD1F384EC94E00E94D50061ED2D
:101BA00073E084EC94E00E945A02F80154E0F59549
:101BB000E7955A95E1F7EF51FD4F608184EC94E091
:101BC0000E94F501F801EF70FF27EF51FD4F608192
:101BD00084EC94E00E94F50160E384EC94E00E94C0
:101BE000F5016DE174E084EC94E00E945A02AE01CC
:101BF0004F5F5F4F5A01C5018E0D9F1D0E946C13F0
:101C0000882EE82FE295EF70F0E0EF51FD4F6081F4
:101C100084EC94E00E94F501E82DEF70F0E0EF51C4
:101C2000FD4F608184EC94E00E94F50160E284EC59
:101C300094E00E94F50180EE880DF5018F3510F4D7
:101C4000808201C09082FFEFAF1ABF0AAC14BD04BE
:101C500091F6CE0101960E944F080F5F1F4F20E1C1
:101C6000E20EF11C82CF64ED73E084EC94E00E94FC
:101C70005A02A2C168ED73E084EC94E00E945A021B
:101C800084EC94E00E94F700892BD1F384EC94E07B
:101C90000E94D500F82E8093B9040E947C06882308
:101CA00069F08F2D0E94B112082F10E0102F00272D
:101CB0006F2D84EC94E00E942E0108C038E7F312E7
:101CC000DFCFE5C058E7F51609F4E1C084EC94E0F5
:101CD0000E94F700892BD1F384EC94E00E94D50098
:101CE000F82E8093B9040E947C06882359F38F2D27
:101CF0000E94B11240E1849F000D111D11246F2D2F
:101D000084EC94E00E942E0104C088E7F81609F4E0
:101D1000BEC084EC94E00E94F700892BD1F384ECE0
:101D200094E00E94D500F82E8093B9040E947C06AE
:101D3000882359F38F2D0E94B112080F111D6F2DAA
:101D400084EC94E00E942E010E94490868EE73E042
:101D500084EC94E00E945A0204C098E7E91609F462
:101D600096C084EC94E00E94F700892BD1F384ECB8
:101D700094E00E94D500E82E8093B9040E947C066E
:101D8000882359F38E2D0E94B112F82EF29430EF71
:101D9000F3226E2D84EC94E00E942E0104C0E8E74B
:101DA000EE1609F474C084EC94E00E94F700892BCD
:101DB000D1F384EC94E00E94D500E82E8093B9041E
:101DC0000E947C06882359F38E2D0E94B112482F61
:101DD00050E04F0D511DF42E6E2D84EC94E04E8F8B
:101DE0005F8F0E942E010E94490861ED73E084EC30
:101DF00094E00E945A02E12FFF27E7FDFA95EF5188
:101E0000FD4F608184EC94E00E94F501C80124E05C
:101E1000959587952A95E1F760E170E00E94E513BA
:101E2000FC01EF51FD4F608184EC94E05F8F0E94D4
:101E3000F501F801EF70FF27EF51FD4F608184EC51
:101E400094E00E94F5016DE384EC94E00E94F501BA
:101E5000EF2DE295EF70F0E0EF51FD4F608184ECE3
:101E600094E00E94F501EF2DEF70F0E0EF51FD4F8F
:101E7000608184EC94E00E94F5010E9449084E8D37
:101E8000642FC8010E94741385EF93E004C00E9480
:101E9000490888E094E00E944F088EC08091760443
:101EA000882309F489C00E9470030091B204109144
:101EB000B3042091B4043091B504DC01CB01801B44
:101EC000910BA20BB30B813D9740A105B10508F022
:101ED0001ACD72C00E9470030091B2041091B30435
:101EE0002091B4043091B504DC01CB01801B910B2F
:101EF000A20BB30B813D9740A105B10508F45CC06E
:101F00008091B1040CC30E9470030091B20410913F
:101F1000B3042091B4043091B504DC01CB01801BE3
:101F2000910BA20BB30B893B9B40A105B10508F4B3
:101F300043C080918E04F3C2809175048111E3CC7B
:101F40003BC0809176048823B9F1A7E7B4E0ECE9BF
:101F5000F4E088E08E0F21919D912913A6C28E1383
:101F6000FACF81E1DCC264EF71E080E090E00E9492
:101F700036038FE8E82E84E0F82E98E0C92ECE0CC8
:101F8000F70181917F0100ED080F0A3008F095C23A
:101F900010E0F801E354FD4FD080DA9407561D4F4E
:101FA000F7E0FD1508F095C264EF71E080E090E085
:101FB0000E943603CE10E4CFE0916704F0E0EE0F0C
:101FC000FF1FEC50FD4F8081823009F468C08330E0
:101FD00009F4C1C0813009F05DC280916604882394
:101FE00051F090916D04911104C090916F04992368
:101FF00011F0815013C0482F50E020918D0430E043
:1020000021503109421753076CF4909173049111D8
:1020100004C090917104992329F08F5F8093660426
:102020000E94D20580917604882309F433C2E0919E
:102030006704F0E0EE0FFF1FEC50FD4FE181F0E090
:1020400040916604842F90E0E050FF4F218130E002
:1020500002C0359527954A95E2F720FF0EC02081F2
:10206000E80FF91FE20FF11DE20FF11D828180934D
:102070006A0481E0809369040DC260E080E00E9400
:10208000340860E080E00E94340862E174E081E698
:1020900095E00E945A0281E080935104FBC1918136
:1020A00080916604891728F0E0916604E11136C03A
:1020B000F1C10BE614E0C12CD12C7601F80181911D
:1020C0008F018823F9F0E0916704F0E0EE0FFF1F25
:1020D000EC50FD4F918180916604891798F42AE0B5
:1020E000B701A60181E695E00E9411028091660485
:1020F000E82FF0E0E456FB4F90E39C0D90838F5F58
:1021000080936604FFEFCF1ADF0AEF0AFF0A2AE086
:10211000C216D104E104F10489F6C6CF809175049A
:10212000882309F4B7C11FEF1E0F1093660461E006
:10213000812F0E943408E12FF0E0E456FB4F10821B
:102140006FE581E695E00E94F50161E0809166040B
:102150000E9434089FC180916D04882359F08091BA
:102160006604803138F0682F62956F7061508F700F
:102170000E94DC0680917304882369F080916604D4
:1021800090EF980F903138F0682F62956F706F5F05
:102190008F700E94DC0680916F04882351F060915B
:1021A0006604862F8F7029F062956F7081500E94AF
:1021B000DC0680917104882359F060916604862FB3
:1021C0008F708F3029F062956F708F5F0E94DC06F0
:1021D0009091500480918C0498135CC18FEF809390
:1021E00088048093890480938A0480938B0440E35D
:1021F00054E05E8B4D8B10E000E044244394812C2E
:10220000912CD82CED88FE8877247A94212C312CBF
:10221000F401EE0FFF1FFB8FEA8FFFEFF80DF98F30
:10222000C22C388E2F8AF70181917F01FFEF2F1A80
:102230003F0A823009F01AC18C2D869586958695C5
:10224000EA8DFB8DE80FF11DE857FB4F808190E090
:102250002C2D277002C0959587952A95E2F780FF6F
:1022600005C1F7018114910451F071978081BB245D
:10227000B394803251F0813041F0B12C06C0878593
:10228000B12C803221F0813011F0512C02C0552444
:1022900053942C8A8FEF820D59F0F7013297908179
:1022A00066246394903231F0913021F0612C02C0A9
:1022B000612C02C08F3041F0F7018081AA24A394E1
:1022C000803219F0813009F0A12CB11007C05110F3
:1022D00005C0611003C0AA2009F4C8C00E945E13A3
:1022E00024E030E040E050E00E948213672B682B2E
:1022F000692B59F1BB2041F0F70171978081813042
:1023000019F4198D0C2D01C080E0552039F0F7012A
:102310009785913019F4142D0C2D81E0662061F021
:10232000F70132979081913039F41D2D072DAA20A5
:1023300009F45CC081E002C0AA2029F0F701908175
:10234000913009F40BC1811151C00E945E1325E048
:1023500030E040E050E00E948213672B682B692B2D
:1023600091F0662051F0809166048F7090E02F8983
:10237000388D821793070CF4EBC0A110D6C0B110B2
:102380002DC05110DCC00E945E1324E030E040E01C
:1023900050E00E9482136130710581059105A9F01A
:1023A0002CF4672B682B692B61F0EDCF623071053F
:1023B0008105910569F0633071058105910559F03A
:1023C000E2CFBB2001F3198D10C05110BFC0DBCF8D
:1023D0006110BEC0D8CFA110BEC0D5CF8091660419
:1023E00082958F708D1568F610E00C2D412F50E00E
:1023F000802F90E0DA0164E0AA0FBB1F6A95E1F735
:102400009D01280F391F205D3B4FF90120812130AC
:1024100029F4FBE0F0936A0420936904A80FB91F24
:10242000A05DBB4F22E02C93D701119730E23C9383
:10243000FA01EE0FFF1F802F869586958695E80F8F
:10244000F11DE857FB4F802F877021E030E040E01E
:1024500050E004C0220F331F441F551F8A95D2F746
:10246000DA01C901809590818923808373943FE0CC
:102470007312D6CE4FEF841A940A8D899E894096A6
:102480009E8B8D8B92E0491619F032E0432EB9CE27
:102490000E94AB05EBE6F4E08CE08E0F11928E13F8
:1024A000FDCF0E9497010C94B70883E038C081E00B
:1024B00080936A04809369041CCB0FEB080F0A31E8
:1024C00008F466CD0FE9080F0A3108F461CD0E94C7
:1024D000CE0660E08CE00E94B402F801808190E0BA
:1024E0000D2C02C0959587950A94E2F780FF05C0F0
:1024F0006EEE72E080E090E004C06AEF70E080E091
:1025000090E00E94360361E08CE00E94B4026AEF22
:1025100070E080E090E00E943603DA9441CD809331
:102520006A0481E08093690447CD809166048F70CE
:1025300090E04F89588D481759076CF020CF809153
:10254000660482958F70D81608F01DCF142D4DCFDC
:102550001D2DC72C4ACF1D2DCC8847CF1D2D0C8992
:1025600045CF90ED980F9A3060F09FE9980F963024
:1025700010F4875508959FEB980F963020F48753F9
:102580000895892F089580E00895E4ECF4E0138223
:10259000128288EE93E0A0E0B0E084839583A68366
:1025A000B78380E593E09183808385EC90E0958705
:1025B000848784EC90E09787868780EC90E0918B0D
:1025C000808B81EC90E0938B828B82EC90E0958BFA
:1025D000848B86EC90E0978B868B118E128E138EF7
:1025E000148EE1E6F5E01382128282E693E0918395
:1025F00080838EE084838FEF85838FE0868380E104
:10260000878381E1808782E1818783E182871386E6
:10261000148615861686178661E0CF010C949607FE
:102620008F929F92AF92BF92CF92DF92EF92FF92E2
:10263000CF93DF93EC01688179818A819B81611559
:1026400071058105910521F464E279ED8BE597E050
:102650002DE133EF41E050E00E94821349015A011D
:102660009B01AC01A7EAB1E40E94A1136B017C01BC
:10267000ACEEB4EFA50194010E94AF13DC01CB01D5
:102680008C0D9D1DAE1DBF1DB7FF03C00197A10995
:10269000B04888839983AA83BB83BC01CD019F770F
:1026A000DF91CF91FF90EF90DF90CF90BF90AF90F0
:1026B0009F908F9008950E94101308958FE292E0EA
:1026C0000E941013089560932F027093300280933C
:1026D0003102909332020895F999FECF92BD81BDE7
:1026E000F89A992780B50895262FF999FECF1FBA39
:1026F00092BD81BD20BD0FB6F894FA9AF99A0FBE2B
:1027000001960895052E97FB1EF400940E949913DC
:1027100057FD07D00E94B41307FC03D04EF40C946D
:10272000991350954095309521953F4F4F4F5F4FEE
:10273000089590958095709561957F4F8F4F9F4F2D
:1027400008950E94D613A59F900DB49F900DA49F4D
:10275000800D911D11240895B7FF0C94A1130E94C0
:10276000A113821B930B0895A1E21A2EAA1BBB1B77
:10277000FD010DC0AA1FBB1FEE1FFF1FA217B3074D
:10278000E407F50720F0A21BB30BE40BF50B661F63
:10279000771F881F991F1A9469F760957095809527
:1027A00090959B01AC01BD01CF010895A29FB0019E
:1027B000B39FC001A39F700D811D1124911DB29F75
:1027C000700D811D1124911D089597FB072E16F49D
:1027D000009407D077FD09D00E94FF1307FC05D0B5
:1027E0003EF4909581959F4F0895709561957F4F28
:1027F0000895EE0FFF1F0590F491E02D0994AA1B98
:10280000BB1B51E107C0AA1FBB1FA617B70710F0DB
:10281000A61BB70B881F991F5A95A9F7809590950D
:10282000BC01CD01089581E090E0F8940C94181457
:04283000F894FFCF4A
:102834000307090E49155E0F05090A4D61696E20EB
:102844004D656E75486173682047656E6572617485
:102854006F72456E7465722050617373776F726422
:10286400446576656C6F706572204D6F6465577250
:102874006F6E672050617373776F72644163636531
:102884007074656428302920556E6C6F636B205218
:102894006F6F6D204C696768744573636170652060
:1028A40074686520526F6F6D456E746572204E7545
:1028B4006D626572506C6561736520576169742E31
:1028C4002E2E507265737320656E74657220746F5A
:1028D400202073686F7720636F6465454550524FBD
:1028E4004D20456469746F72526F6F6D204C696737
:1028F400687420556E2D20206C6F636B6564596F6E
:1029040075204C6F7374596F7520576F6E21596F12
:1029140075206D617920756E6C6F636B202074680F
:102924006520646F6F72001F0808081F0202020E00
:1029340011110E041F040A0E1F151F150A1F0A1970
:10294400190606191906060E11110E0406040602CC
:102954000505041E1E1E00000C12121E1E1E000180
:102964000000000D0E10030301012020202020028E
:1029740020200000202020200320202020002020D0
:1029840020202020200020020302202020200020DC
:1029940001202020200020060304200020202020E5
:1029A40020202000202002060306202000002020F2
:1029B40020042020202020200103062002202020A3
:1029C4002000000020202020201F0F0703010010FA
:1029D400181C1E01080A040002060000070504036F
:1029E4000207060D020001010103090B0C05050590
:1029F4000505050505050502040403010403040295
:102A0400040304020203040403030103040304048F
:102A14000430313233343536373839414243444552
:102A240046200C100204010000000000000002080F
:102A3400000000000000000003000000000003018B
:102A44000208000002060302170E0009250E330EC9
:102A540041086D0C790E8719A00DAD160000C3084E
:102A6400CB080000170EE318170E506F77657265D8
:102A74006420627941726475696E6F000000000021
:102A84002E019B00C6007501F700D500E900000087
:102A9400000046049B00F001EF01446576206D6F51
:102AA4006465005570646174696E67207363726550
:102AB400656E00312F005265736574002077696C70
:102AC4006C206265206861736865640044656369AD
:102AD4006D616C3A200048657861646563696D6175
:102AE4006C3A2000507265737320616E79206B65B7
:102AF4007920746F20636F6E74696E75652E2E2E47
:102B0400003078000A0A0A00456E74657220416438
:102B140064726573733A2000456E74657220446173
:102B240074613A20005772697474656E20746F2062
:102B3400454550524F4D2E0043616E63656C6C6584
:102B440064004C6F636B65642120202020202000EA
:102B5400466174616C204572726F72000D0A000048
:00000001FF
